:020000040800F2
:10000000D05A00208D03000875600008314E0008AA
:10001000315F0008A90C00083575000800000000D9
:10002000000000000000000000000000C9020008FD
:10003000791200080000000025030008D1650008BF
:10004000A7030008A7030008A7030008A7030008E8
:10005000A7030008A7030008A7030008A7030008D8
:10006000A7030008A7030008A7030008A7030008C8
:1000700081110008A70300088D110008A7030008DC
:10008000A7030008A7030008A7030008A7030008A8
:10009000A7030008A7030008A7030008A703000898
:1000A000A703000879670008A7030008A703000852
:1000B000A703000895670008A7030008A703000826
:1000C000A7030008A7030008A7030008A703000868
:1000D000A703000815740008297400083574000887
:1000E000F5170008A7030008A7030008A7030008E6
:1000F000A7030008A7030008A7030008A703000838
:10010000A7030008A7030008A1670008A7030008C9
:10011000396E00084D6E0008AD670008C56700081D
:10012000A7030008A7030008A7030008A703000807
:10013000A7030008A7030008A7030008A7030008F7
:10014000A7030008A7030008A7030008A7030008E7
:10015000A7030008A7030008A703000841740008CC
:10016000A7030008A7030008A7030008A7030008C7
:10017000A7030008A7030008A7030008A7030008B7
:10018000A7030008A7030008616E0008A703000882
:10019000A7030008A7030008A7030008A703000897
:1001A000A7030008A7030008A7030008A703000887
:1001B000A7030008A7030008A7030008A703000877
:1001C000A7030008A703000800F002F800F06DF88C
:1001D0000AA090E8000C82448344AAF10107DA45A2
:1001E00001D100F062F8AFF2090EBAE80F0013F087
:1001F000010F18BFFB1A43F0010318471CC700008A
:100200003CC700000A444FF0000C10F8013B13F00B
:10021000070408BF10F8014B1D1108BF10F8015B5F
:10022000641E05D010F8016B641E01F8016BF9D152
:1002300013F0080F1EBF10F8014BAD1C0C1B09D1A9
:100240006D1E58BF01F801CBFAD505E014F8016B1B
:1002500001F8016B6D1EF9D59142D6D370470000AD
:100260000023002400250026103A28BF78C1FBD8BF
:10027000520728BF30C148BF0B607047642900F0A7
:100280007981752900F07681782900F0AF816329A2
:1002900000F0CB83732900F0D083002070471FB596
:1002A0000BF03FFE1FBD10B510BD00F0FDFB114669
:1002B000FFF7F5FF08F0ACF800F01BFC03B4FFF704
:1002C000F2FF03BC07F057FA2D4B19680868B0E835
:1002D000F04F80F30988BFF36F8F4FF0000080F379
:1002E000118870470000000008480068006880F32B
:1002F00008884FF0000080F3148862B661B6BFF33F
:100300004F8FBFF36F8F00DF00BF00BF08ED00E02D
:10031000DFF80C00016841F470010160704700BF14
:1003200088ED00E0EFF30980BFF36F8F144B1A687C
:100330001EF0100F08BF20ED108A20E9F04F10606A
:1003400009B44FF0500072B680F31188BFF34F8F9D
:10035000BFF36F8F62B60AF08DFB4FF0000080F3A1
:10036000118809BC19680868B0E8F04F1EF0100F3A
:1003700008BFB0EC108A80F30988BFF36F8F704715
:1003800018070020EFF305807047000009488047F8
:1003900009480047FEE7FEE7FEE7FEE7FEE7FEE767
:1003A000FEE7FEE7FEE7FEE704480549054A064B7F
:1003B00070470000C9660008C9010008D054002039
:1003C000D05A0020D0560020D0560020704753EA63
:1003D000020C00F069802DE9F04B4FF00006002B75
:1003E0001FBFB3FA83F503FA05F424FA05F65E405D
:1003F00012BF1643B2FA82F502FA05F4C5F12005E0
:100400001EBF22FA05FC44EA0C04203556EA044CCF
:100410004FEA144418BF641C4FF000084FF0000965
:10042000904271EB030C39D3002919BFB1FA81F75F
:1004300001FA07F6B0FA80F700FA07F6C7F12007CD
:100440001EBF20FA07FC46EA0C062037B6FBF4FC78
:10045000A7EB0507103F07F01F0BCBF120060CFAA6
:100460000BFB2CFA06F644BFB3460026202FA4BF90
:100470005E464FF0000B5BEA060C08BF4FF0010B25
:1004800019EB0B09ABFB027C48EB0608C01B06FB13
:1004900002CC0BFB03CC71EB0C01C1E70B4602460F
:1004A00041464846BDE8F08B13B54FF000004FF0D1
:1004B0000001AFF30080BDE81C4070470FB4044951
:1004C00010B503AA029800F0BDFA10BC5DF814FB49
:1004D0002802002070B5044685690068C10601D570
:1004E000302600E02026C00707D070BDD4E90121E6
:1004F00030469047206A401C20626D1EF6D570BDC4
:1005000070B5044685690078C00707D170BDD4E98D
:10051000012120209047206A401C20626D1EF6D5E4
:1005200070BD70B50C460546012A05D028788006B6
:1005300000D5EA69002302E0012305E05B1C934239
:1005400002D2E05C0028F9D1A869E618C01AA861B7
:10055000286A184428622846FFF7BCFF04E0D5E962
:10056000012114F8010B9047B442F8D32846FFF755
:10057000C7FF70BD2DE9F0410646002410687529BB
:10058000314616A510D0AFF30080002802DA4042B1
:1005900013A507E031688A0701D512A502E04907D3
:1005A00004D511A5012401E0AFF3008000210A2247
:1005B00006F1240709E0B0FBF2FCB0FBF2F302FB0A
:1005C0001C00303078541846491C0028F3D12346CB
:1005D0002A463046BDE8F04100F0C4B900000000F2
:1005E0002D0000002B0000002000000070B5044624
:1005F0000D4621461068AFF300802188090502D519
:100600000F4A7A4402E00E4A7A440E32002104F185
:10061000240305E000F00F060009965D5E54491CB6
:100620000028F7D120780023000704D5702D02D0D0
:1006300009B1022311322046BDE8704000F092B9A2
:10064000A2BA00002DE9F05F894604464FF0000A87
:10065000DFF874B1FB44C0F820A02046E168884769
:10066000002874D0252806D0D4E901219047206ABB
:10067000401C2062F1E700265F462046E16888477B
:100680002028054607DB312D05D2781910F8200CFB
:1006900008B10643F1E7B00701D526F00406C4F817
:1006A0001CA00027C4F818A02A2D09D0284607F05E
:1006B0005BF838B304EB8708303DC8F8185019E0F0
:1006C00059F8041B204604EB87029161E1688847D2
:1006D000012F054618D1E069002820DA26F020060F
:1006E0001DE0D8F8180000EB800005EB4000303822
:1006F000C8F818002046E1688847054607F034F836
:100700000028EED1012F0AD02E2D08D12046E16815
:1007100088477F1C0546022F46F02006C4DBA069EF
:10072000002803DA404246F00106A061F00701D03C
:1007300026F010066C2D0BD0682D09D04C2D39D029
:100740006A2D35D0742D35D07A2D33D016E038E0AF
:10075000E1682F4620468847B842054609D16C2FEC
:1007600026D04FF48060E16806432046884705465E
:1007700004E06C2F1AD04FF4807006430DB3A5F13E
:100780004100192802D8203546F400664A46294619
:10079000204626604E46FFF771FD80B101280BD040
:1007A000F61D26F0070000F1080956E74020E4E7AF
:1007B0008020D8E70020D6E706F104094DE7284657
:1007C00052E7206ABDE8F09F78BA0000032A40F2A1
:1007D000308010F0030C00F0158011F8013BBCF1E3
:1007E000020F624498BF11F801CB00F8013B38BFFB
:1007F00011F8013BA2F1040298BF00F801CB38BF09
:1008000000F8013B11F0030300F02580083AC0F026
:10081000088051F8043B083A51F804CBA0E80810CE
:10082000F5E7121D5CBF51F8043B40F8043BAFF301
:100830000080D20724BF11F8013B11F801CB48BF5B
:1008400011F8012B24BF00F8013B00F801CB48BF91
:1008500000F8012B704710B5203AC0F00B80B1E8CA
:100860001850203AA0E81850B1E81850A0E81850E5
:10087000BFF4F5AF5FEA027C24BFB1E81850A0E8EE
:10088000185044BF18C918C0BDE810405FEA827C08
:1008900024BF51F8043B40F8043B08BF7047D2071F
:1008A00028BF31F8023B48BF11F8012B28BF20F8C0
:1008B000023B48BF00F8012B704702F0FF0343EAF8
:1008C000032242EA024200F002B84FF0000204297B
:1008D000C0F0128010F0030C00F01B80CCF1040C6F
:1008E000BCF1020F18BF00F8012BA8BF20F8022BA3
:1008F000A1EB0C0100F00DB85FEAC17C24BF00F849
:10090000012B00F8012B48BF00F8012B70474FF076
:10091000000200B5134694469646203922BFA0E84F
:100920000C50A0E80C50B1F12001BFF4F7AF09075B
:1009300028BFA0E80C5048BF0CC05DF804EB89004C
:1009400028BF40F8042B08BF704748BF20F8022B8F
:1009500011F0804F18BF00F8012B704770477047A7
:10096000704770472DE9F0470D4699469246044678
:1009700000F124080168880604D5E06921F010011F
:10098000216000E00120A84201DD471B00E00027B4
:10099000A1697A1902EB0900081AA0612078C00643
:1009A00002D42046FFF796FD002608E0D4E9012195
:1009B0001AF806009047206A401C761C20624E45BB
:1009C000F4DB2078C0060AD52046FFF783FD06E059
:1009D000D4E9012130209047206A401C2062381E53
:1009E000A7F10107F4DC07E0D4E9012118F80500BC
:1009F0009047206A401C2062281EA5F10105F3DC07
:100A00002046FFF77DFD2078000602D50220BDE8D4
:100A1000F0870120FBE710B5436913B1AFF3008005
:100A200001E0FFF77EFD012010BD127800F12401E6
:100A30000A7000224A700122EDE711684FF0FF3280
:100A4000E9E70000074B70B50D467B4400F011F854
:100A50000446284600F020F810B14FF0FF3070BD7A
:100A6000204670BD7377000001694A1C0261087856
:100A7000704700B58FB0CDE90131002105910549DE
:100A80007944CDE9031011466846FFF7DBFD0FB04E
:100A900000BD0000E5FFFFFF007B00F08000704715
:100AA000004870476C5400207546FFF7F9FFAE46CA
:100AB00005006946534620F00700854618B020B56A
:100AC000FFF772FCBDE820404FF000064FF0000732
:100AD0004FF000084FF0000B21F00701AC46ACE8E6
:100AE000C009ACE8C009ACE8C009ACE8C0098D4653
:100AF000704710B50446AFF300802046BDE81040B3
:100B0000FFF7DCBB0523642810B501D9022025E0DE
:100B100019B30A461349002448700C705521114C32
:100B20000834A17161710621E37121726C21607238
:100B3000104601F083F96821A072104601F07EF999
:100B4000E072FF2320680722611D03F0D7FF072111
:100B5000601DBDE81040FFF7B8BE0320BDE810409F
:100B600001F00AB86C0000200F4D00264FF4FA7710
:100B700005F1680494F8B90010B90A2007F0A0FD47
:100B800094F8BA000028F5D194F8B9000028F1D003
:100B9000052007F095FDA869401DA861B842E9DB72
:100BA00084F8B960E6E700002C02002070B50A2046
:100BB00007F086FD314D686C012812D101F038F93B
:100BC000B5F84010081A04B2962014FB00F1E4B303
:100BD0000022104608F002FF052007F071FD002CEE
:100BE000ECDA686C401C18D101F022F90446014689
:100BF00023A0FFF763FCB5F84000001B04B2962069
:100C000014FB00F00CB300224142104608F0E6FE4F
:100C1000052007F055FD002CE6DA686C0228CAD1E1
:100C200001F006F90446014615A0FFF747FCB5F8A8
:100C30004000001B04B2962014FB00F02CB10022EF
:100C4000114608F0CBFE052000E004E007F038FD77
:100C5000002CE5DAAFE70CA0FFF730FC00221146CC
:100C6000104608F0BBFE0F4800F0E2F90120E860F2
:100C7000002009F03FFE0020A86170BD980300200D
:100C800025640D0A000000000A0920B3ACC9F9B2BE
:100C9000A86F766572206F766572206F7665722117
:100CA0000000000000150020FEE70000114810B50C
:100CB00041F27074017801290FD0022910D0032964
:100CC00017D101213420FFF71DFF204606F066FCF6
:100CD000BDE8104008A0FFF7F1BB0121352001E07D
:100CE00001213620FFF70EFF2046BDE8104006F038
:100CF00055BC10BD0C040020776368753B616F69BB
:100D00006C3B656C656C656C6C650D0A00000000E1
:100D10002DE9F05F06F0F6FB7F4DE87800F076FFF6
:100D2000C0B2E870DFED7D1AFF287DD000EBC00176
:100D300005F1680B0BEB41008179027A037B1144CA
:100D4000827A1A441144827B1144027C1144827CD1
:100D5000C07C1144C9B2814267D1DFF8CC91012433
:100D6000DFF8BC8126466F4F09F1C00A0023AB7043
:100D7000E878B0EE610A00EBC0010BEB4101081905
:100D80000079082860D2DFE800F0B3046078939817
:100D9000A6ABDFF884C100208A790CF1340C02FA8A
:100DA00000F1C1F3C01100EE901A0CEB8001F8EED7
:100DB000600A91ED001A60EE810AF5EEC00AF1EECC
:100DC00010FA02D0A978491CA970401C30EE200A04
:100DD000C0B20828E3D35449E43981ED020AA87867
:100DE0004870062812D2D8F800202AB3052823D349
:100DF000B5EEC00AF1EE10FA02DDF0EE400A01E0B5
:100E0000F1EE400A10EE902ABA4205DB8E70D8F857
:100E100000208AB105280FD3B5EEC00AF1EE10FA12
:100E200001DCB1EE400A01E074E066E010EE102A49
:100E3000BA4201DBC1ED021A8A782AB1022857D8DA
:100E40008B70C878401CC87052E00A7A0020374B7B
:100E5000EA8006FA00F1114201D043F82060401CFC
:100E6000C0B20828F5D300232F481946803007F078
:100E70004FFA5B1C082BF7DB3AE02C4B00208A7AF8
:100E800024332A8106FA00F1114201D043F8206090
:100E9000401CC0B20428F5D3002323481946403033
:100EA00007F024FA5B1C042BF7DB00F049F91FE084
:100EB000087BE861C9F818001AE0887B2862C9F845
:100EC0001C00194808F094FE1749002216484031CA
:100ED00007F03AF90CE0087CA862CAF8180007E0AD
:100EE000887CE862CAF81C000F48C03008F080FE19
:100EF000A41CE4B20E2C7FF639AFE87800EBC001F9
:100F00000BEB41001221001DFFF7DFFCBDE8F05F95
:100F100006F032BCBDE8F09F2C020020000000006B
:100F20004C1700200000E04000150020E8130020CE
:100F30002DE9F04101240E464FF47A753146002226
:100F4000104608F04BFD042000F0D4FE40B1002212
:100F50001146104608F042FD284607F0B1FB01E0BB
:100F6000002CEBD101246FF03106002230461146EF
:100F700008F034FD0CE000221146104608F02EFD6A
:100F8000032000F0B7FE18B1284607F099FB06E0F1
:100F9000032000F0AFFE0028EDD1002CE5D10125A3
:100FA000002228465A2105F08FFE9FED1F0A05F00A
:100FB00057FA002008F064FC1C4E012440F6B837B4
:100FC000012C08D12C2200213C2008F007FD3846D6
:100FD00007F076FB002400F03FFF10EE100AB0424D
:100FE0001ED800F039FFB5EEC00AF1EE10FA17D89E
:100FF000052007F065FB00F02FFF10EE100A10F13E
:101000007D5F0FD800F028FFB5EEC00AF1EE10FAB0
:1010100008D8BDE8F04100221146104608F0DEBCB9
:10102000002DCDD1BDE8F081000000000000A0C07F
:101030000021016041608161C161C16070470000B1
:101040000149002048617047180000200149002034
:10105000C87670471401002070B50446012005F0E1
:10106000F9F90121084608F09DFD0121022008F050
:1010700099FD012C6FF0770504D0022C16D0032CBB
:101080002CD050E02B4800F0CBFE02284BDC002295
:101090002846114608F0A2FC02E00A2007F010FBE7
:1010A000244800F0BDFE0228F7DD34E0214800F0BE
:1010B000B7FE052837DC00222946104608F08EFCD2
:1010C00002E00A2007F0FCFA1A4800F0A9FE052801
:1010D000F7DD4FF47A7007F0F3FA1CE0164800F0E1
:1010E0009FFE02281FDC154800F09AFE02281ADC39
:1010F00000227821104608F071FC02E00A2007F077
:10110000DFFA0D4800F08CFE022804DC0B4800F0EA
:1011100087FE0228F2DD00221146104608F05EFC30
:101120000A2007F0CDFABDE870400021012008F048
:1011300039BD00001C14002068140020B4140020E5
:1011400070B50D4A00200D4C0125D11E06460B5CE2
:10115000002B04EB8003DB6801D03BB107E0012BDF
:1011600005D1135C5B1C13540D5400E00E54801C1D
:10117000C0B20328EBD370BD390200204015002017
:10118000014800F0D7BE0000B80F0020014800F071
:10119000D1BE00001810002001681823CAB2103A0E
:1011A000B2FBF3F2054B6FF30901032A9B5CC365A5
:1011B00000D9091D8165084670470000A0C00008DD
:1011C000014610B500208B694FF0C0748A6A53B194
:1011D000B3F5005F15D072B1012A0CD0022A0AD0F3
:1011E000032A09D104E01AB1012A06D0022A03D148
:1011F000C96AC90100D5012010BDC96AA142FAD04F
:1012000010BD002AF7D0012AF2D0022AF3D0032A17
:10121000F3D010BD10B50178552921D10022114617
:10122000435C491C0A291A44D2B2F9DB817A914203
:1012300016D18178012913D1008900B20AF06FFB21
:101240009FED081B53EC112B0AF0D0FB9FED071B01
:1012500053EC112B0AF0CAFB0AF08AF80549086022
:1012600010BD00000000000000806640000000008B
:101270000000003F300100207047000001490020BD
:10128000087070476C00002001490020C88070473A
:10129000180000202DE9F0474FF42F674FF4E17656
:1012A0004FF47A7443F698252DED028B4FF448786D
:1012B0006FF059096FF0450A9FED658A00284FF0DD
:1012C000010063D008F0DCFA01210846FFF71AFCA0
:1012D00082213246002004F0A5FE00213A468220F9
:1012E00004F0A0FE00221146104608F077FB2046CD
:1012F00007F0E6F90022B421012005F0E5FC002208
:101300009621104608F06AFB404607F0D9F9002202
:101310001146104608F062FB002008F0B1FA0121E6
:101320003420FFF7EFFB284606F038F90022484644
:10133000114608F053FB204607F0C2F9002211467F
:10134000104608F04BFB00225046114608F046FBC1
:10135000204607F0B5F900221146104608F03EFB82
:10136000601007F0ADF90024B0EE480A05F078F8F7
:10137000322007F0A5F9641CE4B2032CF4D3BDECD1
:10138000028B0120BDE8F04708F07ABA08F078FA3D
:1013900001210846FFF7B6FB82213246002004F007
:1013A00041FE284606F0FAF8012008F069FA00210B
:1013B0003A46822004F036FE00221146104608F01C
:1013C0000DFB204607F07CF90022B421012005F036
:1013D0007BFC00229621104608F000FB404607F0F7
:1013E0006FF900221146104608F0F8FA002008F0C4
:1013F00047FA01213420FFF785FB284606F0CEF896
:1014000000224846114608F0E9FA204607F058F94C
:1014100000221146104608F0E1FA0022504611461B
:1014200008F0DCFA204607F04BF90022114610467E
:1014300008F0D4FA0024B0EE480A05F011F8322082
:1014400007F03EF9641CE4B2032CF4D397E70000E4
:10145000000000002DE9F05F6FF0E7084FF4AF796E
:101460004FF4C87A40F2145B2DED028B6FF06304E9
:1014700040F2DC576FF0590643F698259FED968AA7
:1014800000284FF001014FF000007DD0FFF73AFB3C
:101490000120414607F0B2F80220294606F04CF838
:1014A000284606F07BF80022B421012005F00CFC50
:1014B00000204A46214604F0B5FD504607F000F9E9
:1014C00000215A46204604F0ADFD002040F60202FD
:1014D0006FF0950104F0A6FD002008F0D1F900227C
:1014E0003046114608F07AFA384607F0E9F800224B
:1014F0001146104608F072FA0024B0EE480A04F0D3
:10150000AFFF322007F0DCF8641CE4B2032CF4D304
:10151000012008F0B5F901212320FFF7F3FA28464E
:1015200006F03CF800222B21104608F057FA012063
:1015300000F0B6FB0028FAD100221146104608F050
:101540004DFA01210420FFF7DDFA284606F026F8BF
:101550004FF4FA6007F0B4F801210520FFF7D2FA42
:10156000284606F01BF801212420FFF7CBFA0020C3
:1015700008F086F900223046114608F02FFA384666
:1015800007F09EF8002200E016E01146104608F031
:1015900025FA0024B0EE480A04F062FF322007F07A
:1015A0008FF8641CE4B2032CF4D3BDEC028B012051
:1015B000BDE8F05F08F064B9FFF7A4FA01204146E6
:1015C00007F01CF80220294605F0B6FF284605F072
:1015D000E5FF0022B421012005F076FB64214A4694
:1015E000002004F01FFD504607F06AF800215A461B
:1015F000204604F017FD962140F6FC02002004F07E
:1016000011FD002008F03CF900223046114608F098
:10161000E5F9384607F054F800221146104608F064
:10162000DDF90024B0EE480A04F01AFF322007F07A
:1016300047F8641CE4B2032CF4D3012008F020F92D
:1016400001212320FFF75EFA284605F0A7FF0022BC
:101650002B21104608F0C2F9012000F021FB0028E0
:10166000FAD100221146104608F0B8F901210420F1
:10167000FFF748FA284605F091FF4FF4FA6007F0AB
:101680001FF801210520FFF73DFA284605F086FFE7
:1016900001212420FFF736FA284605F07FFF0020BD
:1016A00008F0EEF800223046114608F097F9384667
:1016B00007F006F800221146104608F08FF90024C2
:1016C000B0EE480A04F0CCFE322006F0F9FF641CAC
:1016D000E4B2032CF4D368E70000000070B50020EA
:1016E0002DED028B08F0CCF800226FF05900114666
:1016F00008F074F94FF4FA75284606F0E1FF00226D
:101700001146104608F06AF99FED398A0024B0EEC0
:10171000480A04F0A5FE322006F0D2FF641CE4B2B1
:10172000032CF4D3012008F0ABF801212320FFF7AC
:10173000E9F943F69824204605F030FF00222621DF
:101740006FF0090008F04AF9284606F0B9FF0120B9
:1017500000F0A6FA0028FAD100221146104608F03F
:101760003DF901210420FFF7CDF9204605F016FFD1
:101770004FF4FA6006F0A4FF01210520FFF7C2F93B
:10178000204605F00BFF01212220FFF7BBF9204680
:1017900005F004FF00226FF041016FF00B0008F02C
:1017A0001DF9012000F07CFA0128FAD1002211462F
:1017B000104608F013F901210620FFF7A3F920468F
:1017C00005F0ECFE4FF47A7006F07AFF0121052057
:1017D000FFF798F9204605F0E1FE01212420FFF7EC
:1017E00091F9BDEC028B2046BDE8704005F0D6BEF5
:1017F0000000000010B505F0F7FFBDE810404FF401
:10180000005000F0D3BC000001490120087070476F
:101810006C00002001490120C8807047180000209A
:101820002DE9F05FDFF804A3C14FDFF808B32DED19
:10183000088B9FEDC18BC24E4FF001094FF000089D
:101840009FEDC0ABC14C9FEDC29BC34D9FEDC3BB91
:1018500006F0D6FA30689FEDC30B606353EC102B93
:1018600094ED180B51EC100B0AF084F809D24FF0EC
:10187000FF30E06294ED180B51EC100B09F06CFD99
:1018800009E094ED180B53EC182B51EC100B09F0F8
:10189000A1FDC4F82C90C4E9180194ED160B53EC8B
:1018A000182B51EC100B09F0A1FF5DD12078002816
:1018B00056D040468AF8488087F848008BF84800A0
:1018C0003068616B401A0A2812D995ED000B53EC71
:1018D000192B51EC100B09F031FE94ED181B53EC51
:1018E000112B0AF0B7F953EC1A2B0AF043F87DD309
:1018F00095ED000B53EC192B51EC100B09F01EFE6B
:1019000094ED181B53EC112B0AF0A4F941EC100BC9
:1019100005F020FF84ED140B94ED121B51EC100B1D
:1019200053EC112B0AF062F841EC100B84ED1A0B0A
:1019300009F098FF03F0B6FC09F0F1FF53EC1B2B04
:101940000AF054F8C4E91A01E06A0022114600EBDB
:101950008000000108F042F8052006F0B1FEAFE774
:1019600048468AF84880A7E79FED800B53EC102B80
:1019700094ED160B51EC100B09F038FF36D120789E
:10198000002861D040468AF8488087F848004FF424
:1019900016778BF84800206931680028606BA1EB4E
:1019A000000155D0B94221D83168081A0A2812D945
:1019B00095ED000B53EC192B51EC100B09F0BEFD0B
:1019C00094ED181B53EC112B0AF044F953EC1A2B2D
:1019D00009F0D0FF0AD395ED000B53EC192B51EC15
:1019E000100B09F0ABFD94ED181B00E082E053EC06
:1019F000112B0AF02FF941EC100B05F0ABFE84ED32
:101A0000140B94ED121B51EC100B53EC112B09F03D
:101A1000EDFF41EC100B84ED1A0B09F023FF03F0EE
:101A200041FC09F07CFF53EC1B2B09F0DFFFC4E9FC
:101A30001A01E16A962041430022104607F0CEFFCA
:101A4000052006F03DFEA6E740468AF848909CE750
:101A5000B9424FD83168081A0A2812D995ED000BFF
:101A600053EC192B51EC100B09F068FD94ED181B89
:101A700053EC112B0AF0EEF853EC1A2B09F07AFF15
:101A800038D395ED000B53EC192B51EC100B09F0EA
:101A900055FD94ED181B53EC112B0AF0DBF841ECCB
:101AA000100B05F057FE84ED140B94ED121B51EC56
:101AB000100B53EC112B09F099FF41EC100B84ED46
:101AC0001A0B09F0CFFE03F0EDFB09F028FF53ECF1
:101AD0001B2B09F08BFF41EC180B84ED1A8BE06A8D
:101AE00009F01DFF53EC182B09F080FF09F0BAFE36
:101AF0000146A1E700221146104607F06FFF0021C2
:101B0000012008F04FF80021022008F04BF84FF4B4
:101B1000487006F0D5FD0020C4F8089008F0EAFEF1
:101B2000C4F81C80BDEC088BBDE8F09F1C1400209D
:101B300068140020B4140020000000000000F03FF2
:101B400010020020000000000000E03F9803002089
:101B50000000000000004940880300200000000051
:101B60000000F83F0000000000000000000000003E
:101B70000000004072B6FEE7012808D0022808D015
:101B8000032808D0042808D005A0FEF797BC09A0B8
:101B9000FBE70CA0F9E710A0F7E716A0F5E70000B7
:101BA000B6E6BFD8B7A2C9FACEB4D6AAB4EDCEF382
:101BB0000D0A0000BDC7B6C8D6B5B3ACCFDED6C6D9
:101BC0000D0A0000B6AFD7F7D7E9B1E0BAC5B3AC9C
:101BD000CFDED6C60D0A0000CAD5B5BDB5C4B6AFB6
:101BE000D7F7D7E9D6B4D0D0D6B8C1EED3D0CEF39C
:101BF0000A000000D4CBD0D0B4CECAFDB2BBC4DC46
:101C0000CEAACEDECFDE0D0A000000000E490A2863
:101C100015D0401C00EBC00201EB42025279012AB0
:101C20000CD0002000EBC00201EB42025279012AE5
:101C300004D0401CC0B20A28F4D30120704749796F
:101C400000200129F9D17047940200200149085C65
:101C50007047000039020020092816D0401C0C49AA
:101C600000EBC00201EB42021279002A0CD00020E6
:101C700000EBC00201EB42021279002A04D0401CA2
:101C8000C0B20A28F4D3012070470020E7E7000023
:101C900094020020014800697047000018000020ED
:101CA000044901EB8000006A012802D0002800D01E
:101CB00000207047401500207047000005484FF491
:101CC000804110B500F066FB08B1002010BD012076
:101CD00010BD0000000C024005484FF4805110B5C3
:101CE00000F058FB08B1002010BD012010BD00001D
:101CF000000C0240094A04284FF4807110B503D04B
:101D0000032807D0052803D1104600F043FB18B183
:101D1000002010BD0121F7E7012010BD000802409E
:101D200001480078704700000C040020094A01288F
:101D300010B502D0022803D008E04FF4007101E092
:101D40004FF48071104600F025FB08B1002010BD53
:101D5000012010BD000802400448042110B500F025
:101D600019FB08B1002010BD012010BD0010024079
:101D700005484FF4005110B500F00CFB08B10020ED
:101D800010BD012010BD0000000C02400148406958
:101D9000704700001800002002488069002800D029
:101DA00001207047F4000020044901EB8000006A24
:101DB000012802D0002800D00020704780150020A4
:101DC00001480078704700006C0000200148B0F91D
:101DD000060070471800002030B501780E4A0F4BFE
:101DE00061B901210170546A596840F27125694353
:101DF00004EB0111816041600021C1608168416094
:101E0000546A5A6840F271235A4304EB0212511A81
:101E1000C0E9022130BD0000001000400C0200208B
:101E200040787047014800687047000000150020A6
:101E3000014840687047000000150020682907D05D
:101E4000482905D06C2905D04C2903D000207047C3
:101E5000000A7047C0B27047014890ED000A704711
:101E6000300100200148408870470000180200201F
:101E70000148808870470000180200202DE9F041D9
:101E8000876D044600F090FA054694F83500002668
:101E9000022806D080206065012084F83460BDE807
:101EA000F0812068016821F0160101602068416915
:101EB00021F080014161206C08B9A06C20B120683C
:101EC000016821F0080101602068016821F001012A
:101ED00001600CE000F068FA401B052807D92020BB
:101EE000606584F83460032084F83500D7E7206803
:101EF0000068C007EED194F85C103F208840B860BD
:101F0000012084F8346084F835000020C7E790F899
:101F10003510022903D08021416501207047052139
:101F200080F835100068016821F00101016000208F
:101F3000704700002DE9F843044665484FF000095A
:101F4000CDF800904FF41651A56D0068B0FBF1F785
:101F50002E68082194F85C2001FA02F030420FD07C
:101F60002068026852070BD5026822F00402026062
:101F700094F85C008140A960606D40F001006065EC
:101F800094F85C104FF0010808FA01F0304208D0D4
:101F900021684969090604D5A860606D40F0020017
:101FA000606594F85C1004208840304208D02168B5
:101FB0000968890704D5A860606D40F00400606579
:101FC00094F85C1010208840304218D021680968CD
:101FD000090714D5A86020680168490304D5006882
:101FE000000308D5A16C07E00168C90503D40168A6
:101FF00021F008010160216C09B12046884794F85E
:102000005C1020208840304231D021680968C90620
:102010002DD5A86094F8350005282068016806D001
:10202000490347D5006800031DD4616C1CE021F012
:10203000160101602068416921F080014161206C36
:1020400008B9A06C20B12068016821F00801016086
:1020500094F85C103F208840A86084F8349084F89D
:102060003580216D1FE0E16B09B120468847606D26
:1020700000282BD0606DC00714D0052084F83500EF
:102080002068016821F0010101600098401C009067
:10209000B84203D820680068C007F6D184F83490AD
:1020A00084F83580E16C002910D001B02046BDE8ED
:1020B000F04308470168C905D5D4016821F0100133
:1020C000016084F8349084F83580CCE7BDE8F8836B
:1020D000080700202DE9F041044600F065F90546A7
:1020E0005CB1002684F83460022084F83500206852
:1020F000016821F0010101600DE00120BDE8F081DF
:1021000000F052F9401B052805D920206065032006
:1021100084F83500F2E720680068C007F0D1216834
:102120000A6820480240D4E901031843D4E9033582
:102130002B43184363691843A3691843E3691843A1
:10214000236A18431043626A042A03D1D4E90B239B
:102150001A4310430860206840690127656A20F02F
:10216000070128460D4304280CD1A06A0543E06A04
:1021700040B12046FFF724F820B14020606584F884
:102180003570BAE7206845612046FFF705F894F8F6
:102190005C203F2191408160666584F835700020A5
:1021A000ACE700003F8010F070470000044910B514
:1021B0000A68024202D00860FFF7F6FF10BD000077
:1021C000143C01402DE9F84FDFF894B100224FF0A4
:1021D00003094FF00F0A0BF1040E0B68012595401F
:1021E0002B40AB4272D14C68012C05D0022C03D09D
:1021F000112C01D0122C10D18668540009FA04F772
:10220000BE43CF68A740374387604468AC430D792D
:10221000C5F30015954025434560C46857008E6896
:1022200009FA07F5AC43BE402643C6604C68022C51
:1022300001D0122C12D1D40800EB840CDCF8206001
:102240005407E40E0AFA04F826EA0806D1F81080CA
:1022500008FA04F848EA0608CCF820800468AC4381
:102260000D7905F00305BD40254305604C68E40089
:102270006FD53C4C256845F480452560246822F0E4
:10228000030504F480440094374C2E19D6F80878DE
:102290009407250F0AFA05F4A743344CA04201D154
:1022A00000242EE0324CA04201D1012429E0314C1F
:1022B000A04201D1022424E02F4CA04201D10324EA
:1022C0001FE02E4CA04202D104241AE041E02C4C25
:1022D000A04201D1052414E02A4CA04201D10624D9
:1022E0000FE0294CA04201D107240AE0274CA0426C
:1022F00001D1082405E0264CA04201D1092400E0C8
:102300000A24AC403C43C6F80848DBF800405D4670
:102310004E689C43F60300D51C432C60DEF8004059
:1023200075464E689C43B60300D51C432C600C4D8B
:1023300008352C684E689C43F60200D51C432C607F
:10234000074D0C352C684E689C43B60200D51C43E3
:102350002C60521C102AFFF440AFBDE8F88F00003B
:10236000003C01404438024000300140000002407F
:102370000004024000080240000C0240001002402D
:102380000014024000180240001C024000200240DD
:10239000002402400069084000D0012070470AB1C3
:1023A000816170470904FBE70148806870470000BD
:1023B0000C07002002488168027811448160704750
:1023C0000C070020074810B5016841F40071016056
:1023D000032000F08DF80F2000F006F800F03EF822
:1023E000002010BD003C024000B50022014637200D
:1023F00087B000F05DF8372000F04CF81348016812
:1024000041F020010160006805A900F0200006905D
:10241000684600F0CFFB00F0EDFB0D4940000D4A8F
:10242000B0FBF1F10C48026040F2E732491E416016
:102430000021C0E90321816000F080FE10B101207D
:1024400007B000BD044800F037FFF9E7403802400C
:1024500040420F0000140040781000200C4882B069
:10246000016841F080510160006800F080500090E8
:102470000748001D016841F48041016000680022A6
:102480000F2100F480400090901E02B000F010B8C0
:1024900040380240002809DB012100F01F02914072
:1024A0004009800000F1E020C0F8001170470000F2
:1024B0000E4BF0B41B68C3F30223C3F10704042CD2
:1024C00000D904241D1D072D01D2002300E0DB1ECE
:1024D000012606FA04F56D1E0D409D409E40761EB5
:1024E000164045EA0601F0BC05F024B90CED00E009
:1024F000064A00F0070110684FF6FF03184040EA53
:102500000120034908431060704700000CED00E013
:102510000000FA051848F8B5016841F080510160E3
:102520000068164D00F080500090286840F480301C
:102530002860FFF739FF4FF47A76044604E0FFF78E
:1025400033FF001BB0420FD86868C003F7D5286876
:1025500040F400302860FFF727FF044606E0FFF74D
:1025600023FF001BB04201D90320F8BD6868800337
:10257000F5D50020F8BD0000403802400070004052
:102580002DE9F84F044600780026DFF82094354600
:10259000C0070ED0D9F8001021F40001C9F80010CE
:1025A000D9F80010626B1143C9F80010606B00B9D4
:1025B00001262068FE4F00030ED53868E16B20F439
:1025C000401008433860E06BB0F5801F01D010B1B7
:1025D00002E0012600E001252068C0020ED538681F
:1025E000216C20F4400008433860206CB0F5800F67
:1025F00001D010B102E0012600E001252068C101F0
:1026000000D50126800666D5E8483830016841F0DB
:10261000805101600068DFF89CA300F080500090BA
:10262000DAF8001041F48071CAF80010FFF7BCFE20
:10263000804605E0FFF7B8FEA0EB080064287DD8CF
:10264000DAF80000C005F5D5DFF864A3AAF11C0A8A
:10265000DAF8000010F440702AD0218E01F44071A5
:10266000814225D0DAF80010DAF8002021F4407118
:1026700042F48032CAF80020DAF8002022F48032D6
:10268000CAF80020CAF80010DAF80000C0070FD01E
:10269000FFF78AFE804641F2883B05E0FFF784FEA3
:1026A000A0EB08015945CAD8DAF800008007F5D533
:1026B000206BC0F3012103297ED0D9F8001021F44A
:1026C000F811C9F80010DAF80010228EC2F30B02DC
:1026D0001143CAF800102078C00607D5386820F0EA
:1026E000807038603868A16B0843386020884104E6
:1026F000B14805D50168626E21F440311143016093
:102700002188090405D50168A26E21F440211143F6
:1027100001602168C90305D50168E26E21F440110A
:10272000114301602168890305D50168226F21F4F6
:102730004001114301602178490600E002E105D51E
:102740000168626C21F003011143016021780906E0
:1027500005D50168A26C21F00C01114301602188AC
:10276000C90505D50168E26C21F030011143016013
:102770002188890505D50168226D21F0C00111432A
:1027800001602188490505D50168626D21F4407119
:10279000114301602188090505D50168A26D21F466
:1027A0004061114301602188C90407D50168E26DC9
:1027B00021F44051114300E03DE00160218889048B
:1027C00005D50168226E21F4404111430160216862
:1027D000490205D50168A26F21F0806111430160B3
:1027E00021684FF00069890209D50168E26F21F084
:1027F000006111430160E16F494500D10125216865
:102800000A0700D50125490305D50168626F21F04B
:102810004071114301602168090206D50168D4F8AE
:10282000802021F0805111430160DFF88081A8F100
:1028300008086EB909E0D9F80020604B22F4F812BC
:1028400018400243C9F800203DE72068800178D590
:10285000D8F8001021F08061C8F80010FFF7A4FD3F
:10286000064604E0FFF7A0FD801B64286AD8D8F86C
:1028700000000001F6D420785149C00711D0606BE8
:1028800078B908680A68C0F301406368C2F303625C
:102890009B0143EA004040EA0260227A40EA02706B
:1028A00008602068020303D5E26BB2F5801F05D0F3
:1028B000C0021AD5206CB0F5800F16D108680A68DE
:1028C000C0F301406368C2F302729B0143EA004017
:1028D000237B40EA036040EA027008603868626A5D
:1028E00020F01F00521E104338602068C0010FD531
:1028F00008680A68C0F303606368268AC2F302723C
:102900009B0143EA064343EA006040EA0270086024
:10291000206880010BD56068228A800140EA02406D
:10292000227B40EA0260227A40EA02700860D8F80E
:10293000001041F08061C8F80010FFF735FD064631
:1029400006E009E082E0FFF72FFD801B64287DD8B8
:10295000D8F800000001F6D5B5B3D8F80000454618
:1029600020F08050C8F80000FFF71EFD064604E086
:10297000FFF71AFD801B642875D82868C0438000C3
:10298000F6D520680F49020301D5E26B1AB1C002E7
:102990002BD5206C48BB08680A68C0F30140636906
:1029A000C2F302729B0143EA00400EE00838024085
:1029B0008C3802400070004090380240FFFCFF0F4E
:1029C000843802408838024054E0237E40EA0360A5
:1029D00040EA0270086038686FF0FF03A26A20F4D2
:1029E000F85003EB0222104338602068800212D5B1
:1029F000E06F48450FD108680A68C0F30360636957
:102A0000268CC2F302729B0143EA064343EA00604C
:102A100040EA027008602078000715D508680A6847
:102A2000C0F303606369C2F301429B0143EA0242BF
:102A300042EA0060227F40EA027008603868E16A7A
:102A400020F4403008433860286800E00BE040F094
:102A500080502860FFF7A8FC044607E0FFF7A4FCBD
:102A6000001B642802D90320BDE8F88F2868C04302
:102A70008000F3D40020F7E72DE9F04704000D466D
:102A800069D0DFF81C81D8F8000000F00F00A842E0
:102A90000CD2D8F8001021F00F012943C8F800101B
:102AA000D8F8000000F00F00A84254D120683D4E35
:102AB000810712D5400703D5306840F4E0503060FC
:102AC0002078000703D5306840F4604030603068FB
:102AD000A16820F0F000084330602078C00729D0BA
:102AE000304960680839012810D00968022810D0E0
:102AF000890700292FDA316821F003010143316091
:102B0000FFF752FC074641F288390CE00968890357
:102B1000EFE78901EDE7FFF747FCC11B494502D903
:102B20000320BDE8F0873068616800F00C00B0EB6E
:102B3000810FF0D1D8F80010404601F00F01A942F2
:102B40000BD9016821F00F0129430160006800F0F2
:102B50000F00A84201D00120E3E72078400705D507
:102B60003068E16820F4E0500843306020780007C6
:102B700006D53068216920F4604040EAC100306029
:102B800000F058F83168084AC1F30311515CC8409D
:102B90000649086006480068FFF726FC0020C0E7E9
:102BA000003C02400838024088C0000808070020A6
:102BB000100700200F2202600C4A136803F0030381
:102BC0004360136803F0F0038360136803F4E05379
:102BD000C36012684FF4E05303EAD2020261044872
:102BE000006800F00F0008607047000008380240DD
:102BF000003C02400448054900680968044AC1F3E2
:102C00008221515CC8407047080700200838024004
:102C100098C000080448054900680968044AC1F3DF
:102C20004231515CC8407047080700200838024014
:102C300098C00008154810B5006810F00C01144841
:102C400013D0144B04290FD008290ED10F4C241F88
:102C5000216801F03F022168490207D52068C0F3CE
:102C60008810A0FB030106E0184610BD2168C1F3DF
:102C70008811A1FB00010023FDF7A9FB2168C1F326
:102C80000141491C4900B0FBF1F010BD0838024079
:102C90000024F40040787D012DE9F84F04004FF046
:102CA000000877D02078DFF850B3ABF10409C007F3
:102CB000A9F104054AD0DBF800105846C1F38101A0
:102CC000012908D00068C0F3810002280AD1D9F890
:102CD0000000400206D52868800337D560680028C8
:102CE000DFD033E06068B0F5803F0BD010B1B0F5B5
:102CF000A02F11D0286820F480302860286820F4A4
:102D0000802002E0286840F480302860606888B144
:102D1000FFF74AFB064609E0286840F48020286057
:102D2000F0E7FFF741FB801B642873D82868800315
:102D3000F7D50BE0FFF738FB064604E0FFF734FB5E
:102D4000801B6428F1D828688003F7D42078800796
:102D500040D5DBF80010584611F00C0F08D0006881
:102D6000C0F3810002280AD1D9F80000400206D43D
:102D70002868800717D5E06801280BD113E0E068C8
:102D80000028286817D040F001002860FFF70CFBEE
:102D9000064605E02CE1FFF707FB801B0228C4D89C
:102DA00028688007F7D52868216920F0F80040EAF4
:102DB000C10028600EE020F001002860FFF7F4FA5F
:102DC000064604E0FFF7F0FA801B022822D82868A4
:102DD0008007F7D42078000725D5874F60696C37C6
:102DE000002838680FD040F001003860FFF7DCFAA7
:102DF000064604E0FFF7D8FA801B02280AD8386894
:102E00008007F7D50FE020F001003860FFF7CCFA1B
:102E1000064605E082E0FFF7C7FA801B02287DD84E
:102E200038688007F7D42078400769D5DFF8C8A153
:102E30000AF1380ADAF80000C0000CD4DAF8001001
:102E400041F08051CAF80010DAF800004FF0010894
:102E500000F080500090694F3868C0050FD4386882
:102E600040F480703860FFF79FFA064604E0FFF7F1
:102E70009BFA801B642851D83868C005F7D55E4F8F
:102E8000A068683701280AD008B1052811D0386831
:102E900020F001003860386820F0040002E0386853
:102EA00040F001003860A06898B1FFF77DFA06464F
:102EB0000BE0386840F004003860F0E7FFF774FA80
:102EC000811B41F28830814265D838688007F5D58A
:102ED0000DE0FFF769FA064606E0FFF765FA811B89
:102EE00041F28830814256D838688007F5D4B8F16D
:102EF000000F05D0DAF8001021F08051CAF8001058
:102F0000A169C9B3DBF80000C0F38100022849D0F1
:102F10002868022920F08070286000E03BE003D0A0
:102F2000FFF742FA044639E0FFF73EFA064604E0AE
:102F3000FFF73AFA801B02282DD828688001F7D4C1
:102F4000D4E907012E4A0843A16A490802EB01416E
:102F5000626A41EA8211084394F82C1040EA016049
:102F600040F00051C9F80010286840F080702860D7
:102F7000FFF71AFA044605E03CE0FFF715FA001BDC
:102F8000022808D828688001F7D533E0FFF70CFA4B
:102F9000001B022802D90320BDE8F88F28688001B1
:102FA000F4D427E0D9F80000012921D0E26900F427
:102FB000800191421CD1226A00F03F01914217D159
:102FC000626A47F6C0710140B1EB821F10D1A26A5C
:102FD0004FF0FF3300F4403103EB5202B1EB024FEC
:102FE00006D194F82C1000F07060B0EB016F01D0A6
:102FF0000120D1E70020CFE70838024000700040F0
:103000000000FFFF704770477047000030B590F830
:103010003C20012A3AD0012280F83C20CA680024D2
:103020008B6822F440721A4D1A434B6822F4806276
:103030001A430B6822F400621A430B6922F480528F
:103040001A434B6922F400521A438B6A22F48042DD
:103050001A430B8B22F4702242EA03420368AB420C
:1030600002D00C4DAB420CD18D8C22F4700242EA9E
:103070000552CD6922F08072096A2A4322F000725B
:103080000A435A6480F83C40002030BD022030BD25
:103090000000014000040140F0B590F83C20012AF6
:1030A0003CD0012580F83C50022280F83D20036886
:1030B0005A689C681A4E1B4FB34201D0BB4204D1E0
:1030C00022F4700C4A6842EA0C0222F0700C0A6882
:1030D00042EA0C025A600268B24213D0B2F1804F49
:1030E00010D0114B9A420DD0104B9A420AD0104B7F
:1030F0009A4207D0BA4205D00E4B9A4202D00E4BEC
:103100009A4204D1896824F080031943916080F8C1
:103110003D50002180F83C100846F0BD0220F0BD73
:10312000000001400004014000040040000800408D
:10313000000C0040004001400018004010B50400A1
:1031400003D094F83D0010B107E0012010BD00202D
:1031500084F83C00204600F023F8022084F83D006B
:103160002068211D03F034FB012084F8480084F816
:103170003E0084F83F0084F8400084F8410084F861
:10318000420084F8430084F8440084F8450084F841
:10319000460084F8470084F83D00002010BD000080
:1031A00008B50068204A2149904207D1086840F0DC
:1031B00001000860086800F0010029E01B4A121FA6
:1031C000B0F1804F11D01A4B984217D1106840F0DF
:1031D0001000106010680022072100F0100000901D
:1031E0003620FFF765F9362019E0106840F001003D
:1031F0001060106800F00100009008BD0D4A904278
:10320000FBD1086840F400300860086800F4003022
:103210000090002205211920FFF74AF91920BDE886
:103220000840FFF737B90000000001404438024071
:10323000001000400044014090F83D10012901D0E9
:1032400001207047022180F83D1000681249884231
:1032500014D0B0F1804F11D0104988420ED01049DF
:1032600088420BD00F49884208D00F49884205D0C8
:103270000E49884202D00E49884207D181680D4A22
:103280001140062906D0B1F5803F03D0016841F016
:10329000010101600020704700000140000400406F
:1032A00000080040000C00400004014000400140C4
:1032B000001800400700010090F83D10012901D0DE
:1032C00001207047022180F83D100168CA6842F071
:1032D0000102CA6000681349884214D0B0F1804FDF
:1032E00011D0114988420ED0104988420BD01049A4
:1032F000884208D00F49884205D00F49884202D041
:103300000E49884207D181680D4A1140062906D02E
:10331000B1F5803F03D0016841F001010160002058
:103320007047000000000140000400400008004019
:10333000000C004000040140004001400018004023
:103340000700010070B5044690F83C00012817D032
:10335000012584F83C50022084F83D0020688268F2
:103360002E4B1A4022F47F4282600868502830D0E9
:103370000DDC20284DD005DC98B310283BD148E067
:10338000022070BD302844D0402834D139E0602874
:1033900028D0702806D0B0F5805F2CD0B0F5005F43
:1033A00029D10AE04A682068D1E9021303F081FAC2
:1033B0002068816841F0770109E04A682068D1E916
:1033C000021303F076FA2068816841F4804181603D
:1033D00011E0CA684968206803F0A2FB2068502108
:1033E00007E016E0CA684968206803F0EBFB206834
:1033F000602103F068FA84F83D50002084F83C0016
:1034000070BDCA684968206803F08AFB20684021C3
:10341000EFE7226801461046EBE7000088FFFEFF59
:103420002DE9F04FDFF8FC930146FD4B09F13C0616
:10343000A6F114042DED0A8B81B09FEDFBBB9FED2F
:10344000FC8B9FEDFD9B9FEDFEABA4F134029868D1
:103450000127884202F1880A02F1940BA2F12805A3
:1034600072D191F81CC098461B7B9C45F8D1EC4961
:1034700053880969EBB30023538001F005F8A4F1E8
:10348000140148600090606808F049FA41EC1C0B98
:10349000009840F27122D9F80410411A7068504324
:1034A00001EB001008F03BFA41EC100B51EC1B0B48
:1034B00053EC102B08F042F853EC1C2B08F096FA52
:1034C0002C3494ED021B53EC112B07F083FFC4E95D
:1034D000020100207060BAF802005646401C02B299
:1034E000AAF80220D8F8100078B304284FD0082892
:1034F00000E012E0D8F8080001680B6A4ED023F40F
:1035000020430B620068016A0162C6489C30416832
:10351000491C41600A2A44D020E34546578000F008
:10352000B3FFC9F8040000207060A9882868FEF77E
:1035300031FF58B14FF0FF306060286940B1042876
:1035400008D0082808D00FE06CE019E06760F4E7C5
:10355000A868A8E2A868B2E2A86801680A6A22F42A
:1035600020620A620068E2E0A86801680A6A22F440
:1035700020420A620068016A41F400510162EDE2F2
:10358000D8F8080001680B6A23F00A03B9E7D8F8F5
:10359000080001680B6A23F0A003B2E723F420635C
:1035A000AFE7DBF8041089B394ED020B9FEDA61B87
:1035B00051EC100B53EC112B07F0C0FF95ED020BF3
:1035C00041EC180B53EC102B07F004FF41EC100BEF
:1035D00004F0C0F853EC192B51EC100B08F004FB6D
:1035E0000DD895ED020B51EC180B53EC102B07F096
:1035F000F1FE53EC1A2B08F0F9F9C5E902019FED31
:10360000940B0020708084ED020BA7E2FFE7CBF85B
:10361000047094ED020B53EC182B51EC100B07F0D7
:103620008DFFEAE78C4B986888427DD191F81CC0E9
:1036300098461B7B9C4577D1874993880969EBB3F2
:103640000023938000F020FF7649143188600090B9
:10365000A06808F064F941EC1C0B009840F271225C
:10366000D9F80810411AB068504301EB001008F077
:1036700056F941EC100B51EC1B0B53EC102B07F0DF
:103680005DFF53EC1C2B08F0B1F9664C543494EDFB
:10369000041B53EC112B07F09DFEC4E9040100202C
:1036A000B060BAF804005646401C02B2AAF80420E2
:1036B000D8F81000C8B3042846D000E013E008286A
:1036C000D8F8080001680B6A45D023F420430B6248
:1036D0000068016A016253499C318868401C886017
:1036E0000A2A3BD03AE24546978000F0CDFEC9F861
:1036F00008000020B060A9882868FEF74BFED0B112
:103700004FF0FF30A060286900283FF421AF042863
:103710003FF420AF08287FF416AFA9680868026A52
:1037200022F42062026201E057E006E00868016AC4
:1037300041F4007122E7A760E5E7D8F808000168C6
:103740000B6A23F00A03C2E7D8F8080001680B6A85
:1037500023F0A003BBE723F42063B8E7DBF80810ED
:1037600079B394ED040B53EC182B51EC100B07F0CC
:10377000E5FE95ED040B41EC180B53EC102B07F014
:1037800029FE41EC100B03F0E5FF53EC192B51EC33
:10379000100B08F029FA0DD895ED040B51EC180B1D
:1037A00053EC102B07F016FE53EC1A2B08F01EF901
:1037B000C5E904019FED260B0020B08084ED040BC9
:1037C000CCE1FFE7CBF8087094ED040B53EC182B19
:1037D00051EC100B07F0B2FEEAE7204B98688842E4
:1037E0007BD191F81CC098461B7B9C4575D11B4929
:1037F000D3880969A3B30023D38000F045FE0949AB
:103800001431C8600090E06808F089F841EC1C0BA6
:10381000009840F27122D9F80C10411AF06820E0AB
:10382000941200209C16002000000000006AF8405E
:1038300000000000000024400000000000003440B0
:10384000000000000000E0BF00000000000024C0F5
:103850000000000000000000B4120020D41200207C
:103860003CE0504301EB001008F059F841EC100B1C
:1038700051EC1B0B53EC102B07F060FE53EC1C2B90
:1038800008F0B4F8DB4C94ED061B53EC112B07F059
:10389000A1FDC4E906010020F060BAF80600564612
:1038A000401C02B2AAF80620D8F8100048B3042839
:1038B0002ED00828D8F8080001680B6A2FD023F40E
:1038C00020430B620068016A0162CA484830C1683F
:1038D000491CC1600A2A25D040E162E04546D780F4
:1038E00000F0D2FDC9F80C000020F060A98828681B
:1038F000FEF750FD08B1E76005E74FF0FF30E060EC
:1039000001E7D8F8080001680B6A23F00A03D8E73A
:10391000D8F8080001680B6A23F0A003D1E723F46C
:103920002063CEE7DBF80C1079B394ED060B53EC73
:10393000182B51EC100B07F001FE95ED060B41EC36
:10394000180B53EC102B07F045FD41EC100B03F066
:1039500001FF53EC192B51EC100B08F045F90DD871
:1039600095ED060B51EC180B53EC102B07F032FDC4
:1039700053EC1A2B08F03AF8C5E906011FED4C0B81
:103980000020F08084ED060BE8E0FFE7CBF80C7038
:1039900094ED060B53EC182B51EC100B07F0CEFDF9
:1039A000EAE7DFF85482D8F80800884259D1097F45
:1039B00098F80C30994254D1414613890969EBB308
:1039C0000023138100F060FD8A49403908610090AE
:1039D000206907F0A4FF41EC1C0B009840F2712213
:1039E000D9F81010411A3069504301EB001007F06C
:1039F00096FF41EC100B51EC1B0B53EC102B07F016
:103A00009DFD53EC1C2B07F0F1FF7A4C94ED081B45
:103A100053EC112B07F0DEFCC4E9080100203061F3
:103A2000BAF808005646401C01B2AAF80810D8F8A7
:103A3000100098B3042855D0082800E012E0D8F808
:103A400008201068036A54D023F4204303621068EE
:103A5000026A0262674848300269521C02610A2900
:103A60004AD07BE0178100F00FFDC9F8100000205C
:103A70003061B8F80410D8F80000FEF78BFC70B184
:103A80004FF0FF302061D8F8100050B1042814D056
:103A90000828D8F808003FF460AD66E519E0276112
:103AA000F1E7D8F8080001680A6A22F00A020A62FF
:103AB0000068016A41F0020160E5D8F80800016879
:103AC0000A6A22F0A0020A620068016A41F020013D
:103AD00054E5D8F808000268136A23F00A03136259
:103AE0000068B5E7D8F808201068036A23F0A0033F
:103AF000ACE723F42063A9E7DBF81010F1B394EDF1
:103B0000080B53EC182B51EC100B07F017FD95ED3B
:103B1000080B41EC180B53EC102B07F05BFC41EC4D
:103B2000100B03F017FE53EC192B51EC100B08F09F
:103B30005BF80DD895ED080B51EC180B53EC102BDE
:103B400007F048FC53EC1A2B07F050FFC5E90801B9
:103B50001FEDC10B0020308184ED080B274D286834
:103B6000401C2860B0F5C87F34D11FEDC70B214E33
:103B700000270124483685ED040B00E02FE02F607C
:103B800056F8240007F0CBFE41EC100B03F0E2FDE9
:103B900095ED041B51EC100B53EC112B07F01AFCA4
:103BA000C5E9040146F82470641CE4B2042CE7D98A
:103BB0009FED130B53EC102B95ED040B51EC100BF8
:103BC00007F014FF95ED021B53EC112B07F002FCDC
:103BD000C5E9020101B0BDEC0A8BBDE8F08FCBF85E
:103BE000107094ED080B53EC182B51EC100B07F0F0
:103BF000A5FCABE7F0160020F412002080030020A3
:103C0000000000000000D03F2DE9F041054690F88B
:103C10003C000C46012836D0012085F83C008AB3D0
:103C2000042A42D02868082A51D0D4E90031E26839
:103C3000066A26F480560662C769066A27F440774A
:103C400047EA01214FF6FF7721F4704107EA02327B
:103C50000A43C2614FF4204126F4204601EA0331B1
:103C6000314301622868C16921F44061C16128685B
:103C7000C169A26841EA0221C161002085F83C00C7
:103C8000BDE8F08101E00220FAE7E3682868D4E9A2
:103C9000001202F057FF2868816921F00C01816150
:103CA00028688169A26811430FE0E3682868D4E9B5
:103CB000001202F099FF2868816921F44061816156
:103CC00028688169A26841EA02218161D5E7D4E9C7
:103CD0000027267B016A21F480710162C169036AB1
:103CE00021F00301394321F0F00731074FF420663A
:103CF00023F4206306EA02221A4347EA1161C161F4
:103D000002622868C16921F00C01C1612868C1699B
:103D1000A2681143B0E710B5040003D094F83D0049
:103D200010B107E0012010BD002084F83C002046BF
:103D300000F022F8022084F83D002068211D02F0E6
:103D400047FD012084F8480084F83E0084F83F00D5
:103D500084F8400084F8410084F8420084F843006D
:103D600084F8440084F8450084F8460084F847004D
:103D700084F83D00002010BD70B586B004461421C3
:103D80006846FCF7C4FD304900252E4E22681039E4
:103D90002D4B02242D48B2422FD11A6842F0020264
:103DA0001A601A6802F0020205920A6842F00102E3
:103DB0000A600A6802F0010205920A6842F00202F3
:103DC0000A60096801F00201059140218DE8320086
:103DD000CDE903546946FEF7F5F9012069468DE8FF
:103DE00031001B48CDE90354FEF7ECF9002206210F
:103DF0001D20FEF75DFB1D2020E0164EB2421FD1B4
:103E00001A6842F008021A601A6802F00802059265
:103E10000A6842F001020A60096801F00101059197
:103E200005218DE83200CDE903546946FEF7CAF951
:103E3000002206213220FEF73BFB3220FEF72AFB50
:103E400006B070BD0004004040380240000002404F
:103E500000040240000C004010B5044699B104294A
:103E600014D0082915D00C2916D0102917D094F891
:103E70004300B9B1042918D0082919D094F8472073
:103E800001281AD117E094F83E00F2E794F83F00B9
:103E9000EFE794F84000ECE794F84100E9E794F884
:103EA0004200E6E794F84420EAE794F84520E7E783
:103EB00094F84620E4E7012A01D0012010BD022039
:103EC00099B1042916D0082919D00C291CD0102921
:103ED0001DD084F8430084F84700D9B104291ED0CE
:103EE00008294CD00C291FD14EE084F83E0084F8FC
:103EF0004400F2E784F83F0084F84500EDE784F8D9
:103F0000400084F84600E8E784F84100E3E784F8DD
:103F10004200E0E72068C26842F0020203E0206845
:103F2000C26842F00402C2602068012202F0B4FCC0
:103F300018492068884214D0B0F1804F11D016493A
:103F400088420ED0154988420BD01549884208D0C6
:103F50001449884205D01449884202D01349884246
:103F600007D18168124A1140062906D0B1F5803F79
:103F700003D0016841F001010160002010BD2068FC
:103F8000C26842F00802CEE72068C26842F0100220
:103F9000C9E70000000001400004004000080040A4
:103FA000000C0040000401400040014000180040A7
:103FB0000700010070B50446006801694FF0000574
:103FC000C943890715D4C168C943890711D4E91EBB
:103FD000016101202077206880698007204602D097
:103FE000FFF71EFA04E000F0FBF8204600F0BAF9F3
:103FF000257720680169C943490717D4C168C943B7
:10400000490713D46FF00401016102202077206872
:10401000806910F4407F204602D0FFF701FA04E0E7
:1040200000F0DEF8204600F09DF925772068016950
:10403000C943090716D4C168C943090712D46FF0F0
:1040400008010161042020772068C06980072046AC
:1040500002D0FFF7E5F904E000F0C2F8204600F0D6
:1040600081F9257720680169C943C90617D4C16859
:10407000C943C90613D46FF01001016108202077ED
:104080002068C06910F4407F204602D0FFF7C8F9CD
:1040900004E000F0A5F8204600F064F925772068D8
:1040A0000169C943C90708D1C168C943C90704D117
:1040B000891E0161204600F0D7F920680169C943D3
:1040C000090609D4C168C943090605D46FF0800107
:1040D00001612046FEF797FF20680169C943C905C1
:1040E00009D4C168C943090605D46FF48071016120
:1040F0002046FEF787FF20680169C943490609D4B5
:10410000C168C943490605D46FF0400101612046EA
:1041100000F0CFF920680169C94389060BD4C16852
:10412000C943890607D46FF0200101612046BDE82C
:104130007040FEF769BF70BD70B586B004461421AB
:104140006846FCF7E4FB214A022521680024204848
:10415000012691420FD1016841F010010160006811
:10416000694600F0100005904FF4D44000901948C3
:10417000CDE9015423E0B1F1804F24D1016841F031
:1041800001010160016801F001010591016841F040
:10419000020101600068694600F0020005902020DD
:1041A0000090CDE901540C48CDE90346FEF70AF82A
:1041B00040F60840009009486946CDE90154CDE930
:1041C0000346FDF7FFFF06B070BD00000000014090
:1041D000303802400010024000000240000402405B
:1041E000704770B5044690F83C000D4601280BD08E
:1041F000012084F83C000C2A45D007DC5AB1042A7F
:104200001BD0082A78D12CE0022070BD102A4ED095
:10421000142A71D15DE0206802F05EFB206881699C
:1042200041F0080181612068816921F00401816108
:10423000206881692A69114311E0206802F080FB3F
:104240002068816941F4006181612068816921F4FD
:1042500080618161206881692A6941EA0221816166
:104260004AE0206802F0A6FB2068C16941F008011D
:10427000C1612068C16921F00401C1612068C16980
:104280002A69114311E0206802F0CCFB2068C16963
:1042900041F40061C1612068C16921F48061C1619C
:1042A0002068C1692A6941EA0221C16124E02068CD
:1042B00002F0E4FB2068416D41F00801416520688F
:1042C000416D21F0040141652068416D2A69114367
:1042D00011E0206802F0FAFB2068416D41F40061B2
:1042E00041652068416D21F4806141652068416D20
:1042F0002A6941EA02214165002084F83C0070BD32
:1043000010B5040003D094F83D0010B107E001207F
:1043100010BD002084F83C00204600F022F8022066
:1043200084F83D002068211D02F052FA012084F833
:10433000480084F83E0084F83F0084F8400084F888
:10434000410084F8420084F8430084F8440084F873
:10435000450084F8460084F8470084F83D000020BA
:1043600010BD70477047000010B5044669B10429BC
:104370000ED008290FD00C2910D0102911D094F894
:104380004300012810D0012010BD94F83E00F8E74A
:1043900094F83F00F5E794F84000F2E794F8410004
:1043A000EFE794F84200ECE70220E9B304293FD09C
:1043B000082940D00C2941D0102942D084F843006C
:1043C0000122206802F068FA1F4920681F4A8842CB
:1043D00001D0904203D1436C43F40043436420680E
:1043E000884213D0B0F1804F10D0194988420DD0C7
:1043F000184988420AD01849884207D0904205D00F
:104400001649884202D01649884207D18168154A68
:104410001140062906D0B1F5803F03D0016841F074
:1044200001010160002010BDFFE784F83E00C7E7EE
:1044300084F83F00C4E784F84000C1E784F84100F5
:10444000BEE784F84200BBE70000014000040140E1
:104450000004004000080040000C00400040014003
:10446000001800400700010010B5044601F0F8FCF8
:1044700004492068884203D1BDE81040FDF79ABF87
:1044800010BD0000001400400246002041B1042984
:1044900009D008290AD00C2901D11068006C704796
:1044A0001068406B70471068806B70471068C06B75
:1044B00070477047704770472DE9F0410268044625
:1044C000D0691168936840F60F0528424FF0000547
:1044D00005D1830678D58B0676D5616EE7E07C4FF3
:1044E00003F001060F4037437ED0C70709D0CF0540
:1044F00007D501271762D4F8802042F00102C4F8E2
:10450000802082070AD5DA0708D0276802223A629B
:10451000D4F8802042F00402C4F8802042070AD573
:10452000DA0708D0236804221A62D4F8802042F007
:104530000202C4F8802002070CD501F020023243A9
:1045400008D0236808221A62D4F8802042F00802BA
:10455000C4F8802002050BD54A0109D523684FF421
:1045600000621A62D4F8802042F02002C4F8802051
:10457000D4F88020002A2FD0800605D5880603D5E0
:10458000616E09B120468847D4F8800021688968A7
:10459000490602D410F0280F20D0204602F0F4FC87
:1045A00020688168490614D5816821F04001816046
:1045B000206F70B147490165206FFDF7A8FC002806
:1045C0000AD0206F016D01E00EE02046BDE8F04109
:1045D00008472046FFF76FFFBDE8F0812046FFF750
:1045E0006AFFC4F88050F7E7266E2023012E59D1C8
:1045F000C60657D5CE0655D51020106220688168B2
:1046000049062ED5226F116849680904090CE3D0C8
:10461000B4F858608E42DFD9A4F85A10D169B1F5C8
:10462000807F17D0016821F4807101602068816863
:1046300021F0010181602068816821F040018160E2
:10464000E36725662068016821F010010160206F92
:10465000FDF714FCB4F85800B4F85A10401A81B2AF
:104660001CE0B4F85810B4F85A20891AB4F85A204B
:1046700089B2002AB0D00029AED0026822F490722C
:1046800002602068826822F001028260E36725668A
:1046900065662068026822F0100202602046FFF77B
:1046A00009FF99E7060605D50E0603D5A16E002978
:1046B0008BD191E740068FD548068DD511682046ED
:1046C00021F040011160A367A56600F071FA83E74D
:1046D00020010004756F000810B5040002D0A06F1F
:1046E00010B107E0012010BD002084F874002046BE
:1046F00000F026F82420A0672068016821F001015D
:104700000160204602F0D4FC0128ECD0606A10B1B0
:10471000204602F0ABFB2068416821F490414160E3
:104720002068816821F02A0181602068016841F0D9
:10473000010101602046BDE8104002F0FBBB000013
:104740002DE9F04F87B0044614216846FCF7DFF8E6
:10475000C1490227BF4A032620681039BE4B0025F5
:10476000DFF8F89290424FF0080820D1186840F422
:1047700000201860186800F400200590086840F0D8
:1047800004000860086802AA694600F00400059069
:10479000B002CDE9000782E860014846FDF712FD4E
:1047A000002206213420FDF783FE342036E0AC4A97
:1047B000DFF8B0B2904236D1186840F4801018602B
:1047C000186800F480100590086840F00400086044
:1047D000086800F004000590086840F008000860D0
:1047E0000868694600F008000590901402AACDE917
:1047F0000007484682E86001FDF7E4FC04206946B2
:1048000002AACDE90007584682E86001FDF7DAFC0C
:10481000002206213520FDF74BFE3520FDF73AFE3C
:1048200007B0BDE8F08FDFF840C2904A604521D163
:10483000186840F080401860186800F080400590CB
:10484000086840F010000860086802AC694600F093
:10485000100005904FF4C070CDE9000784E86001B6
:104860001046FDF7AFFC002205215220FDF720FE87
:104870005220D3E7DFF8F8C1604519D1186840F03D
:1048800000401860186800F000400590086840F08B
:104890001000086008686946CDE9006700F0100064
:1048A000CDE90256CDE904801046FDF78BFCB7E751
:1048B000DFF8C0C10722DFF8A0A160450AF1040AB1
:1048C00024D1DAF8003043F01003CAF80030DAF8E7
:1048D000000000F010000590086840F0010008603A
:1048E00008686946029500F0010005904FF4C06029
:1048F000CDE900076048CDE90362FDF763FC0022C3
:1049000006212520FDF7D4FD252087E7DFF86CC1BF
:10491000604520D1186840F400301860186800F431
:1049200000300590086840F0080008600868694693
:10493000029500F0080005906020CDE90007CDE960
:1049400003625846FDF73EFC002205212620FDF7B4
:10495000AFFD262062E7DFF828C1604552D1186814
:1049600040F480201860186800F4802005900868E2
:1049700040F00800086008686946029500F00800E9
:1049800005904FF44070CDE90007CDE90362584629
:10499000FDF718FC3C4E4FF480683A484FF0006732
:1049A00030608015C6E90175C6E903587561C6E92E
:1049B0000650356230467562FDF78CFB08B1FDF795
:1049C000D9F82667B463304E2E4860363030E6E8BA
:1049D0000207402086E82101F56035612A487561AB
:1049E000B5616030F561083EFDF774FB08B1FDF775
:1049F000C1F8E66600220521B4632720FDF758FDC3
:104A000027200BE7214A90427FF451AFDAF80020CB
:104A100042F02002CAF80020DAF8000000F020007E
:104A20000590086840F004000860086802AA69461A
:104A300000F004000590C020CDE9000782E8600185
:104A40004846FDF7BFFB002206214720FDF730FD59
:104A50004720E3E6004C0040403802400008024096
:104A600000500040000C024000780040001002405E
:104A7000007C004000100140000002400044004063
:104A80000048004028600240B80F00200014014098
:104A900010B4C36F202B18D1A1B19AB190F8743023
:104AA000012B12D0012380F87430002303660368C1
:104AB0005C68240203D51C6844F080641C6010BC50
:104AC00002F010BC012010BC70470220FBE7000080
:104AD00010B500680649884202D10648FCF79AFBE7
:104AE000BDE8104003490B220348FFF7D1BF000087
:104AF00000480040C4100020B00E00202DE9F8430B
:104B00000446806F1F4615460E4620284ED1CEB172
:104B1000C5B194F87400012848D0012084F87400CD
:104B20004FF00008C4F880802120A067FDF73CFC0E
:104B3000A4F850508146A4F85250A068B0F5805FA8
:104B400003D004E00120BDE8F883206920B1354698
:104B5000002684F8748010E00025FAE780212046C2
:104B600002F008FCB8B9C5B115F8010B21688862DC
:104B7000B4F85200401EA4F85200B4F852004B465C
:104B80004FF0000200970028E8D14FF04001204686
:104B900002F0F0FB30B10320D5E736F8020BC0F38A
:104BA0000800E3E72020A0670020CCE70220CAE746
:104BB0007047000070B5044608462DED028B01F0E9
:104BC00049FC974D9FED978BE4B1012C6FF03206B5
:104BD00041D0022C77D0032C7ED0042C7DD0DDE098
:104BE000A86C404206F09BFE53EC182B06F0FEFE2C
:104BF00006F038FE00220146104604F0EFFE0520C4
:104C000003F05EFD2046FDF74BF80028E8D0642055
:104C100003F056FDA86C06F082FE53EC182B06F04C
:104C2000E5FE06F01FFE00220146E86C04F0D6FE09
:104C300002E00A2003F044FD2046FDF731F8012888
:104C4000F7D09620A8E000223146104604F0C6FEB8
:104C5000052003F035FD2046FDF722F80028F2D0AC
:104C600007E000223321104604F0B8FE052003F0CF
:104C700027FD2046FDF714F80128F2D0642003F048
:104C80001FFDA86C404206F04AFE53EC182B06F0BC
:104C9000ADFE06F0E7FD0146E86C0022404204F05C
:104CA0009DFECEE7A86C06F03AFE53EC182B06F0FA
:104CB0009DFE06F0D7FD00220146104604F08EFE50
:104CC000052003F0FDFC2046FCF7EAFF0028E9D0B0
:104CD000642003F0F5FC01E019E080E0A86C40429C
:104CE00006F01DFE53EC182B06F080FE06F0BAFD10
:104CF00000220146E86C04F071FE02E00A2003F095
:104D0000DFFC2046FCF7CCFF0128F7D099E72869A3
:104D100060B101282AD0022838D03CE0002230219E
:104D2000104604F05BFE052003F0CAFC2046FCF7A9
:104D3000E1FF0028F2D06FF02F056FF00406204647
:104D4000FCF7D8FF012826D100222946304604F07E
:104D500045FE052003F0B4FCF1E700223146284669
:104D600004F03CFE052003F0ABFC01E06FF00E0503
:104D70002046FCF7BFFF0028EFD00CE000223021D6
:104D8000104604F02BFE052003F09AFC2046FCF7A9
:104D9000B1FF0028F2D0642003F092FC00221146FB
:104DA000104604F01BFE002001F054FBBDEC028B0A
:104DB0009FED1E0ABDE8704001F052BBA86C06F0E2
:104DC000AEFD53EC182B06F011FE06F04BFD002251
:104DD0000146104604F002FE052003F071FC204657
:104DE000FCF788FF0028E9D0642003F069FCA86C78
:104DF00006F095FD53EC182B06F0F8FD06F032FD99
:104E00000146E86C0022404204F0E8FD02E00A207E
:104E100003F056FC2046FCF76DFF0128F7D010E7A1
:104E20000C040020333333333333F33F00000000EE
:104E3000FEE700002DE9F041634C032701254FF008
:104E400000080226A4F80880B1E02078012802D0EA
:104E5000022859D0A8E05DA0E563FBF72FFB4FE0E7
:104E6000E06BFCF763FF01281CD12089D0B9FCF767
:104E7000A7FF012816D12079A0B125812770FCF762
:104E8000F7FFE062FCF7EEFF606302465E48E16A0E
:104E9000FBF714FB642003F013FCFCF7BBFC65710B
:104EA000002020712089012827D1FCF789FF0128E3
:104EB00023D1E06BFCF73AFF00281ED12079E0B146
:104EC000FCF7D0FF2063FCF7D3FFA06202F0F0FDF7
:104ED000C1B203290ED326704CA02681FBF7EEFA4F
:104EE000642003F0EDFBFCF795FC012060710020CD
:104EF000207102E054A0FBF7E1FA012003F0E0FB8F
:104F0000606C0028ACD04FE040A0E563FBF7D6FA18
:104F100047E0E06BFCF70AFF012819D12089B8B9F6
:104F2000FCF74EFF012813D1207988B12581277025
:104F3000FCF79EFFE062FCF795FF60630246324893
:104F4000E16AFBF7BBFAFCF765FC65710020207194
:104F50002089012822D1FCF733FF01281ED1E06B04
:104F6000FCF7E4FED0B92079C0B1FCF77BFF2063E9
:104F7000FCF77EFFA06202F09BFDC1B203290AD3B9
:104F8000257012A02681FBF799FAFCF743FC6571A6
:104F90000020207102E02CA0FBF790FA012003F022
:104FA0008FFB606C0028B4D0052003F089FB606C97
:104FB00000283FF44AAFA4F80880002084F800805D
:104FC000BDE8F04105F096BC0C0400200A2A2A2A0C
:104FD0002A2A2A2A2A2A2A2A2A43757272656E7474
:104FE000204865696768743A4C6F776573744865E3
:104FF000696768742A2A2A2A2A2A2A2A2A2A2A2A0D
:105000002A2A2A0A0000000064C100080A2A2A2A63
:105010002A2A2A2A2A2A2A2A2A43757272656E7433
:10502000204865696768743A4D656469756D4865BF
:10503000696768742A2A2A2A2A2A2A2A2A2A2A2ACC
:105040002A2A2A0A000000006661696C20746F2019
:1050500020636F6E7665727409202064656C7461DC
:105060002074696D65203A25640A000002490B220C
:105070000248FFF70DBD0000C4100020B00E002054
:10508000024A00211154D21C1154704736020020EC
:105090000449052804D0062801D101200870704772
:1050A0000220FBE70C0400202DE9F047704D074675
:1050B000002014460E4628810620FFF7E9FF01F084
:1050C0003DFA304601F0C6F900260021012000F02B
:1050D00075FA322003F0F4FA0620394600F06EFA31
:1050E000322003F0EDFA761CF6B2032EEDD3204603
:1050F00001F010FA781C6862C0B201F0D9F92046BC
:1051000001F002FAFCF7C0F8012001F0CBF94FF4EE
:10511000FA79484603F0D4FA01202871002041F2C0
:1051200070766FF0090868710BE002F01FFF322003
:1051300003F0C6FA4FF000023CB12821404604F0CB
:105140004DFCFCF743FE10B10AE01621F6E70420FF
:10515000FCF7D0FD012803D1FCF732FE0128E4D092
:1051600000221146104604F039FC0420FCF7C2FD71
:1051700010B3687958B3012001F0C6F9002001F09E
:1051800091F9FBF793FD002205216FF0450004F033
:1051900025FC484603F094FA00221146104604F01C
:1051A0001DFC002001F0B0F9012001F07BF9002086
:1051B0006871FCF769F840E0002001F073F9BDE880
:1051C000F047002001F0A6B9052003F079FAFCF7BA
:1051D000F7FD18B9FCF7FAFD0128F5D0FCF7D6FD6C
:1051E00001282DD0FCF7D8FD50B3FCF7CFFD0228E5
:1051F000A7D1FCF7D1FD0028A3D0304602F0CEF9AC
:105200001CA0FBF75BF901213C20FBF77BFC30463F
:1052100002F0C4F9FBF714FF1AA0FBF74FF90120C5
:1052200002F024FB0620394600F0C8F9012001F005
:1052300039F9C4B1204601F06DF90120287180E7E9
:10524000304602F0ABF913A0FBF738F901213D20FD
:10525000FBF758FC304602F0A1F9FBF7F7FE0120FE
:1052600001F04CF9D6E7002001F04EF9E2E700002A
:105270000C040020CAB6B1F0B5BDD4B2BBB70D0A5C
:1052800000000000B0D1B6ABCEF7B7C5BBD8C8A5FB
:105290000D0A0000CAB6B1F0B5BDBED8D0CE0D0A19
:1052A00000000000002807DD782801DD7820704725
:1052B0002828FCDA282070476FF07701884203DB4A
:1052C0006FF027018842F6DD084670472DE9F0416E
:1052D00000270A2003F0F4F92E4E4FF001082E4D5E
:1052E00086F84880E86B00280FDDF078A98F081A4F
:1052F00004B234B3686A00224142104604F06EFBE7
:10530000052003F0DDF9002CEFDAE86B0028E7DA7E
:10531000012700223846B42101F0D6FCE86B404258
:10532000E863F078A98F081A04B254B10022696AC0
:10533000104604F053FB052003F0C2F9002CF0DA0C
:10534000CEE716A0FBF7BAF800222821104604F099
:1053500045FB0320FBF780FE00221146104604F0B7
:105360003DFB00242FB10122B421104601F0ACFC1A
:1053700007E040F2DC5086F8488003F0A1F986F897
:1053800048400020C5F8048005F0B4FA6C61BDE81F
:10539000F08100001C140020980300200A0920CA94
:1053A000FDCFDFCDEAB3C90A0000000070B5FCF7FD
:1053B00007FD002844D0394E0125A6F13404306899
:1053C000022830D006283BD1A068012838D134A06B
:1053D000FBF774F837A0FBF771F839A0FBF76EF80C
:1053E000002001F031F8706860610020E58001F074
:1053F00091F80020A060A06905284BDA3248E580CA
:10540000006808B3FCF78CFC012837D002283BD099
:10541000032815D1A0690121401CA0612120BDE80D
:105420007040FBF76FBB2069002809D1E06940B1EB
:10543000012805D100221146104604F0CFFA25625A
:1054400070BD0120206170BDFCF76AFC012809D005
:1054500002280DD00328F6D1A0690121401CA061CB
:105460001620DCE7A0690121401CA0610C20D6E7D2
:10547000A0690121401CA0612020D0E7A069012182
:10548000401CA0610D20CAE7A0690121401CA06159
:105490001720C4E70020E08070BD00004C00002011
:1054A000BDF8C8EBBDD7CCDDC6BDCCA8BDE2C2EB14
:1054B0000A000000D2AAD7A5CEEFBFE90D0A00006E
:1054C000CDA3B3B50D0A0000780700202DE9F04107
:1054D000204D28680068406A0024697C0126C0B21B
:1054E00061B1012918D0022906D1002100F0C4FDC4
:1054F000002801D06C742C74BDE8F081FF2809D01D
:105500001128F9D1022169742C740121BDE8F04100
:1055100000F0B2BD6E74EEE70E490E4F3C3F097CC1
:10552000992801D103290FD00A4A0A328854287CCD
:10553000401CC0B228740628DED16C742C74C7F8E5
:105540004640A7F84A40D7E700F068F8FE806C7440
:10555000D2E700005400002010B50A4C0AE0607841
:1055600028B10021092000F029F8642000E00A2079
:1055700003F0A6F820780028F1D0BDE81040002004
:1055800005F0B8B91800002010B50A4C88B0207892
:1055900000280DD000202070012007491C226070D7
:1055A0006846FBF758F90021684603F095F8E06279
:1055B00008B010BD18000020E0BF000810B5C9B247
:1055C00002F0C8FC0849FF23052251F8050BFFF73C
:1055D00095FA06A0FAF772FF03483C380021C0F89C
:1055E000411080F8451010BD5400002020202020DC
:1055F000202020206F6B0D0A0000000002490120CE
:1056000008710021FFF7DABF540000200249002092
:1056100008710146FFF7D2BF5400002070B5094D54
:10562000A87AE97A2B7B42189A420AD1A5F108049C
:10563000C4E90001FFF7BAFE002020606060287412
:10564000687470BD540000200D4808B5016841F42D
:105650000011016000680022052100F40010009094
:105660000C20FCF725FF0C20FCF714FF002205217D
:105670000E20FCF71DFFBDE808400E20FCF70ABF16
:105680003038024010B5AAB021491C226846FBF709
:10569000E2F80021684603F01FF81E4C1C221C494A
:1056A0001C31206007A8FBF7D6F8002107A803F0FB
:1056B00013F817491C2260600EA83831FBF7CBF8AD
:1056C00000210EA803F008F811491C22A06015A8BB
:1056D0005431FBF7C0F8002115A802F0FDFF0C497A
:1056E0001C22E0601CA87031FBF7B5F800211CA853
:1056F00002F0F2FF06491C22206123A88C31FBF73F
:10570000AAF8002123A802F0E7FF60612AB010BDCB
:1057100038BF0008000000202DE9F04F87B01421A9
:105720006846FBF7F4F86B48016841F0100101602E
:10573000016801F010010591016841F080010160EC
:10574000016801F080010591016841F004010160E8
:10575000016801F004010591016841F00101016057
:10576000016801F001010591016841F00201016049
:10577000016801F002010591016841F00801016032
:1057800000680122DFF850B1042100F00800059004
:105790005846FCF704FE012250481146FCF7FFFD75
:1057A000DFF83CA14FF48057002239465046FCF701
:1057B000F6FD4C4800223946FCF7F1FD00244FF07D
:1057C0000408694658460294CDE900840394FCF726
:1057D000F9FC40F201394148CDE900946946029450
:1057E0000394FCF7EFFC8A206946CDE900043D48AC
:1057F0000294FCF7E7FC02266946CDE900645046B6
:105800000294FCF7DFFC01250097CDE901546946BD
:1058100050460394FCF7D6FC680300903248694672
:10582000CDE901045046FCF7CDFC4CF2202069463E
:105830008DE831005046FCF7C5FC4FF20B40DFF815
:10584000ACA08DE8310069465046FCF7BBFC40F245
:10585000053069468DE831002048FCF7B3FC4FF471
:10586000014069468DE831001E48FCF7ABFC00970B
:105870006946CDE901541B480395FCF7A3FC0022BF
:1058800006212820FCF714FE2820FCF703FECDF8A3
:1058900000806946CDE901465846FCF793FCCDF8F7
:1058A000009069460D48CDE90146FCF78BFC4FF4AA
:1058B000704069468DE851005046FCF783FC280291
:1058C00069468DE851000748FCF77CFC07B0BDE84D
:1058D000F08F000030380240001002400008024003
:1058E000000402400000024000001110000C0240C1
:1058F0000B484FF6FF72094910B501600021416065
:10590000C0E9021201618161FDF718FC002803D093
:10591000BDE81040FCF72EB910BD00000044014066
:105920004C0B002030B599B0002468461C21179418
:10593000189415941694129413941494FAF7E7FF9C
:105940002C2107A8FAF7E3FF3848374901601521F1
:10595000C0E9011442F20F71C0E90314446184618B
:10596000FDF7ECFB08B1FCF705F94FF480501590FA
:105970002E4815A9FDF7E6FC08B1FCF7FBF82B480B
:10598000FEF7BEFC08B1FCF7F5F8284812A91294FE
:1059900013941494FDF780FB08B1FCF7EBF8702525
:1059A0002248CDE9005400226946029403940494ED
:1059B00005940694FEF715FC08B1FCF7DBF81B48CC
:1059C000042269460095FEF70CFC08B1FCF7D2F8FA
:1059D0001648082269460095FEF703FC08B1FCF75B
:1059E000C9F812480C2269460095FEF7FAFB08B187
:1059F000FCF7C0F84FF400500794089407A90994E5
:105A00000A94CDE90B4000030D9410941194CDE954
:105A10000E400648FDF7FAFA08B1FCF7ABF8034868
:105A2000FEF78AFB19B030BD00000140D00900200C
:105A300030B58FB0002468461C210794089409945F
:105A40000A940B940C940D94FAF761FF2B484FF0D5
:105A5000804101600A21C0E9011442F20F71C0E9DE
:105A600003148461FDF76AFB08B1FCF783F84FF477
:105A700080500790214807A9FDF764FC08B1FCF7A6
:105A800079F81E48FEF73CFC08B1FCF773F81B4898
:105A90000BA90B940D94FDF7FFFA08B1FCF76AF817
:105AA0007025164800226946CDE9005402940494FA
:105AB000FEF797FB08B1FCF75DF810480422694631
:105AC0000095FEF78EFB08B1FCF754F80B4808224E
:105AD00069460095FEF785FB08B1FCF74BF80748CF
